:100000000C9472000C948F000C948F000C948F0051
:100010000C948F000C948F000C948F000C948F0024
:100020000C948F000C948F000C948F000C948F0014
:100030000C948F000C948F000C948F000C948F0004
:100040000C948F000C948F000C948F000C948F00F4
:100050000C948F00BD00D600EF00080121012101A2
:100060002101210121012101210121012101210180
:100070002101210121012101210121012101210170
:100080002101210121012101210121012101210160
:1000900021012101BD00D600EF00080136014F010A
:1000A000680181019A019A019A019A019A019A01C3
:1000B0009A019A019A019A019A019A019A019A0168
:1000C0009A019A019A019A019A019A019A019A0158
:1000D0009A019A019A019A019A019A0136014F01F7
:1000E0006801810111241FBECFE5D4E0DEBFCDBF82
:1000F00010E0A0E6B0E0E6EBFCE002C005900D9257
:10010000A837B107D9F720E0A8E7B0E001C01D92F9
:10011000A038B207E1F70E94A3020C9459060C9490
:10012000000097B1906497B996B1906896B9806EC7
:1001300097B19F6197B997B1892387B986B18260DA
:1001400086B986B1846086B9089586B1806486B91F
:100150003699FECF24B185B190E0982F8827822B65
:10016000089590E0FC01E154F109E432F10508F052
:1001700068C0E65DFF4F0C945303442359F02AB343
:1001800081E090E002C0880F991F6A95E2F7822B08
:100190008ABB08952AB381E090E002C0880F991FBE
:1001A0006A95E2F7809582238ABB0895442359F02B
:1001B00027B381E090E002C0880F991F6A95E2F7AB
:1001C000822B87BB089527B381E090E002C0880F9F
:1001D000991F6A95E2F78095822387BB089544238F
:1001E00059F024B381E090E002C0880F991F6A950E
:1001F000E2F7822B84BB089524B381E090E002C033
:10020000880F991F6A95E2F78095822384BB089531
:10021000442359F021B381E090E002C0880F991F78
:100220006A95E2F7822B81BB089521B381E090E0CB
:1002300002C0880F991F6A95E2F78095822381BBDF
:10024000089580E690E09F938F930E9459030F904A
:100250000F90089590E0FC01E154F109E432F105BA
:1002600008F068C0E25BFF4F0C945303442359F03D
:100270002BB381E090E002C0880F991F6A95E2F7E6
:10028000822B8BBB08952BB381E090E002C0880FD6
:10029000991F6A95E2F7809582238BBB08954423CA
:1002A00059F028B381E090E002C0880F991F6A9549
:1002B000E2F7822B88BB089528B381E090E002C06A
:1002C000880F991F6A95E2F78095822388BB08956D
:1002D000442359F025B381E090E002C0880F991FB4
:1002E0006A95E2F7822B85BB089525B381E090E003
:1002F00002C0880F991F6A95E2F78095822385BB1B
:100300000895442359F022B381E090E002C0880FA1
:10031000991F6A95E2F7822B82BB089522B381E090
:1003200090E002C0880F991F6A95E2F780958223BA
:1003300082BB089580E690E09F938F930E945903BB
:100340000F900F9008956295607F823479F018F4D1
:10035000813431F00895833479F0843499F008952C
:100360008BB38F708BBB8BB3862B8BBB88B38F709B
:1003700088BB88B3862B88BB85B38F7085BB85B35C
:10038000862B85BB82B38F7082BB82B3682B62BB26
:10039000089541E060E082E40E942A018FE99FE035
:1003A0000197F1F700C0000040E060E082E40E94A5
:1003B0002A018FE99FE00197F1F700C0000008953E
:1003C000CF93C82F682F62956F7081E40E94A301BC
:1003D00040E061E082E40E942A010E94C9016C2F82
:1003E00081E40E94A30140E061E082E40E942A01CE
:1003F0000E94C9018FEC97E00197F1F700C000005F
:10040000CF91089541E064E081E40E94B10041E0B1
:1004100065E081E40E94B10041E066E081E40E9471
:10042000B10041E067E081E40E94B10041E060E09A
:1004300082E40E94B10041E061E082E40E94B100E8
:1004400040E061E082E40E942A0182E00E94E00133
:100450008FE99FE00197F1F700C0000088E20E9459
:10046000E0018FE99FE00197F1F700C000008EE006
:100470000E94E0018FE99FE00197F1F700C00000C2
:1004800081E00E94E0018FE99FE00197F1F700C051
:10049000000086E00E94E0018FE99FE00197F1F7FC
:1004A00000C0000008959FEF980F923070F4613102
:1004B00070F4662371F0813019F42FE7260F0AC01B
:1004C000823041F42FEB260F05C020E803C020E85E
:1004D00001C020E8822F0E94E0018FEC97E0019795
:1004E000F1F700C000000895CF93C82F682F6295E0
:1004F0006F7081E40E94A30141E061E082E40E9408
:100500002A010E94C9016C2F81E40E94A30141E0ED
:1005100061E082E40E942A010E94C9018FEC97E009
:100520000197F1F700C00000CF910895CF93DF93BA
:10053000EC0103C00E947402219688818111FACFD8
:10054000DF91CF910895CF93DF93CDB7DEB7299791
:100550000FB6F894DEBF0FBECDBF8FEF87BB80E034
:100560000E9491000E94020220E041E062E082E0ED
:100570000E94140361E081E00E9453020E94A500E2
:100580009093790080937800809178009091790021
:1005900096958795969587958CBF8CB785BB8CB7BC
:1005A0001F928F9304E710E01F930F93CE010196E3
:1005B0007C019F938F930E946F03809178009091AC
:1005C00079009F938F931F930F938E010B5F1F4FA3
:1005D0001F930F930E946F03C7010E9496029FEF23
:1005E00022E587E0915020408040E1F700C0000004
:1005F00061E082E00E9453028FE097E20197F1F7F9
:1006000000C00000C8010E9496029FEF22E587E02B
:10061000915020408040E1F700C000000FB6F894F0
:10062000DEBF0FBECDBFA6CF811102C022BF01C069
:100630002CBF813069F028F0823089F08330B1F02E
:100640001EC083B78F7B83BF83B7877F83BF17C0ED
:1006500083B7806483BF83B7877F83BF10C083B7AE
:100660008F7B83BF83B7886083BF09C083B78064F3
:1006700083BF83B7886083BF87B3886087BB83B736
:100680008F7E83BF83B78F7D83BF83B790E1499F00
:10069000A0011124482B43BF83B7887F83BF83B752
:1006A000682B63BF0895EE0FFF1F0590F491E02DB6
:1006B0000994A0E0B0E0EFE5F3E00C943206AE015F
:1006C0004B5F5F4FFA0161917191AF0180917C00A6
:1006D00090917D000E949103E2E00C944E06AEE002
:1006E000B0E0E5E7F3E00C9430060D891E8986E062
:1006F0008C831A8309838FEF9FE79E838D83AE01DE
:10070000475E5F4F6F89788DCE0101960E949103FD
:10071000EF81F885E00FF11F10822E96E4E00C9433
:100720004C06ABE0B0E0E7E9F3E00C9422066C0184
:100730007B018A01FC0117821682838181FFCCC173
:10074000CE0101963C01F6019381F70193FD85915D
:1007500093FF81917F01882309F4BAC1853239F46E
:1007600093FD859193FF81917F01853229F4B60134
:1007700090E00E948805E7CF912C212C312CFFE1DD
:10078000F315D8F08B3279F038F4803279F0833277
:10079000A1F4232D20611DC08D3261F0803369F4F6
:1007A000232D216016C0832D8260382EE32DE46056
:1007B0003E2E2AC0F32DF8601DC037FC2DC020ED61
:1007C000280F2A3040F08E32B9F436FC81C1232D37
:1007D0002064322E19C036FE06C08AE0989E200D95
:1007E0001124922E11C0EAE02E9E200D1124222EFB
:1007F000F32DF0623F2E08C08C3621F4832D8068E3
:10080000382E02C0883641F4F70193FD859193FF9D
:1008100081917F018111B3CF982F9F7D95549330A3
:1008200028F40C5F1F4F9FE399830DC0833631F08E
:10083000833771F0833509F059C021C0F8018081F8
:1008400089830E5F1F4F88248394912C530113C01A
:100850002801F2E04F0E511CF801A080B18036FE55
:1008600003C0692D70E002C06FEF7FEFC5010E94E9
:100870007D054C018201F32DFF773F2E16C0280124
:1008800022E0420E511CF801A080B18036FE03C068
:10089000692D70E002C06FEF7FEFC5010E94720505
:1008A0004C01F32DF0683F2E820133FC1BC0822DDA
:1008B00090E088169906B0F4B60180E290E00E94BC
:1008C00088052A94F4CFF50137FC859137FE819194
:1008D0005F01B60190E00E94880521102A9421E072
:1008E000821A91088114910471F7E8C0843611F0DE
:1008F000893641F5F80137FE07C060817181828138
:1009000093810C5F1F4F08C060817181072E000C1E
:10091000880B990B0E5F1F4FF32DFF763F2E97FF2D
:1009200009C090958095709561957F4F8F4F9F4F2F
:10093000F0683F2E2AE030E0A3010E94C405882E13
:10094000861845C0853731F4232D2F7EB22E2AE03C
:1009500030E025C0932D997FB92E8F36C1F018F461
:10096000883579F0B5C0803719F0883721F0B0C0EC
:10097000E92FE061BE2EB4FE0DC0FB2DF460BF2E4A
:1009800009C034FE0AC0292F2660B22E06C028E016
:1009900030E005C020E130E002C020E132E0F801A3
:1009A000B7FE07C060817181828193810C5F1F4F08
:1009B00006C06081718180E090E00E5F1F4FA3014F
:1009C0000E94C405882E8618FB2DFF773F2E36FE29
:1009D0000DC0232D2E7FA22E891458F434FE0BC097
:1009E00032FC09C0832D8E7EA82E05C0B82CA32C06
:1009F00003C0B82C01C0B92CA4FE0FC0FE01E80D45
:100A0000F11D8081803321F49A2D997EA92E09C091
:100A1000A2FE06C0B394B39404C08A2D867809F070
:100A2000B394A3FC11C0A0FE06C0B21488F4280C35
:100A3000922C9B180EC0B21460F4B60180E290E0D4
:100A40000E948805B394F7CFB21418F42B1802C093
:100A5000982C212CA4FE10C0B60180E390E00E94E7
:100A60008805A2FE17C0A1FC03C088E790E002C081
:100A700088E590E0B6010CC08A2D867859F0A1FE79
:100A800002C08BE201C080E2A7FC8DE2B60190E0DB
:100A90000E948805891438F4B60180E390E00E9432
:100AA00088059A94F7CF8A94F301E80DF11D8081AF
:100AB000B60190E00E9488058110F5CF222009F44C
:100AC00042CEB60180E290E00E9488052A94F6CFDB
:100AD000F6018681978102C08FEF9FEF2B96E2E1AE
:100AE0000C943E06FC010590615070400110D8F74F
:100AF000809590958E0F9F1F0895FC016150704066
:100B000001900110D8F7809590958E0F9F1F089542
:100B10000F931F93CF93DF93FB01238121FD03C02C
:100B20008FEF9FEF2CC022FF16C046815781248192
:100B300035814217530744F4A081B1819D012F5F95
:100B40003F4F318320838C93268137812F5F3F4F26
:100B50003783268314C08B01EC01FB010084F185EF
:100B6000E02D0995892BE1F6D80116968D919C917F
:100B70001797019617969C938E931697CE01DF9147
:100B8000CF911F910F910895FA01AA27283051F1B2
:100B9000203181F1E8946F936E7F6E5F7F4F8F4FAE
:100BA0009F4FAF4FB1E03ED0B4E03CD0670F781F0D
:100BB000891F9A1FA11D680F791F8A1F911DA11DF2
:100BC0006A0F711D811D911DA11D20D009F468942B
:100BD0003F912AE0269F11243019305D3193DEF6D3
:100BE000CF010895462F4770405D4193B3E00FD089
:100BF000C9F7F6CF462F4F70405D4A3318F0495D74
:100C000031FD4052419302D0A9F7EACFB4E0A69556
:100C10009795879577956795BA95C9F70097610578
:100C2000710508959B01AC010A2E069457954795CE
:100C300037952795BA95C9F7620F731F841F951FC3
:100C4000A01D08952F923F924F925F926F927F92D4
:100C50008F929F92AF92BF92CF92DF92EF92FF92CC
:100C60000F931F93CF93DF93CDB7DEB7CA1BDB0B78
:100C70000FB6F894DEBF0FBECDBF09942A8839881D
:100C800048885F846E847D848C849B84AA84B98424
:100C9000C884DF80EE80FD800C811B81AA81B98130
:100CA000CE0FD11D0FB6F894DEBF0FBECDBFED0144
:060CB0000895F894FFCF47
:100CB6006572726F7220696E2064696F5F73657406
:080CC60070696E002564000056
:00000001FF
